{
  "_format": "hh-sol-artifact-1",
  "contractName": "NFTDiplomas",
  "sourceName": "contracts/nft-diploma.sol",
  "abi": [
    {
      "inputs": [],
      "stateMutability": "nonpayable",
      "type": "constructor"
    },
    {
      "anonymous": false,
      "inputs": [
        {
          "indexed": true,
          "internalType": "address",
          "name": "owner",
          "type": "address"
        },
        {
          "indexed": true,
          "internalType": "address",
          "name": "approved",
          "type": "address"
        },
        {
          "indexed": true,
          "internalType": "uint256",
          "name": "tokenId",
          "type": "uint256"
        }
      ],
      "name": "Approval",
      "type": "event"
    },
    {
      "anonymous": false,
      "inputs": [
        {
          "indexed": true,
          "internalType": "address",
          "name": "owner",
          "type": "address"
        },
        {
          "indexed": true,
          "internalType": "address",
          "name": "operator",
          "type": "address"
        },
        {
          "indexed": false,
          "internalType": "bool",
          "name": "approved",
          "type": "bool"
        }
      ],
      "name": "ApprovalForAll",
      "type": "event"
    },
    {
      "anonymous": false,
      "inputs": [
        {
          "indexed": false,
          "internalType": "address",
          "name": "_seller",
          "type": "address"
        },
        {
          "indexed": false,
          "internalType": "address",
          "name": "_buyer",
          "type": "address"
        },
        {
          "indexed": false,
          "internalType": "uint256",
          "name": "_price",
          "type": "uint256"
        }
      ],
      "name": "NftBought",
      "type": "event"
    },
    {
      "anonymous": false,
      "inputs": [
        {
          "indexed": true,
          "internalType": "address",
          "name": "previousOwner",
          "type": "address"
        },
        {
          "indexed": true,
          "internalType": "address",
          "name": "newOwner",
          "type": "address"
        }
      ],
      "name": "OwnershipTransferred",
      "type": "event"
    },
    {
      "anonymous": false,
      "inputs": [
        {
          "indexed": true,
          "internalType": "address",
          "name": "from",
          "type": "address"
        },
        {
          "indexed": true,
          "internalType": "address",
          "name": "to",
          "type": "address"
        },
        {
          "indexed": true,
          "internalType": "uint256",
          "name": "tokenId",
          "type": "uint256"
        }
      ],
      "name": "Transfer",
      "type": "event"
    },
    {
      "inputs": [
        {
          "internalType": "uint256",
          "name": "_tokenId",
          "type": "uint256"
        },
        {
          "internalType": "uint256",
          "name": "_price",
          "type": "uint256"
        }
      ],
      "name": "allowBuy",
      "outputs": [],
      "stateMutability": "nonpayable",
      "type": "function"
    },
    {
      "inputs": [
        {
          "internalType": "address",
          "name": "to",
          "type": "address"
        },
        {
          "internalType": "uint256",
          "name": "tokenId",
          "type": "uint256"
        }
      ],
      "name": "approve",
      "outputs": [],
      "stateMutability": "nonpayable",
      "type": "function"
    },
    {
      "inputs": [
        {
          "internalType": "address",
          "name": "owner",
          "type": "address"
        }
      ],
      "name": "balanceOf",
      "outputs": [
        {
          "internalType": "uint256",
          "name": "",
          "type": "uint256"
        }
      ],
      "stateMutability": "view",
      "type": "function"
    },
    {
      "inputs": [
        {
          "internalType": "uint256",
          "name": "_tokenId",
          "type": "uint256"
        }
      ],
      "name": "buy",
      "outputs": [],
      "stateMutability": "payable",
      "type": "function"
    },
    {
      "inputs": [],
      "name": "commissionWallet",
      "outputs": [
        {
          "internalType": "address",
          "name": "",
          "type": "address"
        }
      ],
      "stateMutability": "view",
      "type": "function"
    },
    {
      "inputs": [
        {
          "internalType": "uint256",
          "name": "_tokenId",
          "type": "uint256"
        }
      ],
      "name": "disallowBuy",
      "outputs": [],
      "stateMutability": "nonpayable",
      "type": "function"
    },
    {
      "inputs": [
        {
          "internalType": "uint256",
          "name": "tokenId",
          "type": "uint256"
        }
      ],
      "name": "getApproved",
      "outputs": [
        {
          "internalType": "address",
          "name": "",
          "type": "address"
        }
      ],
      "stateMutability": "view",
      "type": "function"
    },
    {
      "inputs": [
        {
          "internalType": "address",
          "name": "owner",
          "type": "address"
        },
        {
          "internalType": "address",
          "name": "operator",
          "type": "address"
        }
      ],
      "name": "isApprovedForAll",
      "outputs": [
        {
          "internalType": "bool",
          "name": "",
          "type": "bool"
        }
      ],
      "stateMutability": "view",
      "type": "function"
    },
    {
      "inputs": [
        {
          "internalType": "address",
          "name": "recipient",
          "type": "address"
        },
        {
          "internalType": "string",
          "name": "tokenURI",
          "type": "string"
        }
      ],
      "name": "mintNFTDiploma",
      "outputs": [
        {
          "internalType": "uint256",
          "name": "",
          "type": "uint256"
        }
      ],
      "stateMutability": "nonpayable",
      "type": "function"
    },
    {
      "inputs": [],
      "name": "name",
      "outputs": [
        {
          "internalType": "string",
          "name": "",
          "type": "string"
        }
      ],
      "stateMutability": "view",
      "type": "function"
    },
    {
      "inputs": [],
      "name": "owner",
      "outputs": [
        {
          "internalType": "address",
          "name": "",
          "type": "address"
        }
      ],
      "stateMutability": "view",
      "type": "function"
    },
    {
      "inputs": [
        {
          "internalType": "uint256",
          "name": "tokenId",
          "type": "uint256"
        }
      ],
      "name": "ownerOf",
      "outputs": [
        {
          "internalType": "address",
          "name": "",
          "type": "address"
        }
      ],
      "stateMutability": "view",
      "type": "function"
    },
    {
      "inputs": [],
      "name": "renounceOwnership",
      "outputs": [],
      "stateMutability": "nonpayable",
      "type": "function"
    },
    {
      "inputs": [
        {
          "internalType": "address",
          "name": "from",
          "type": "address"
        },
        {
          "internalType": "address",
          "name": "to",
          "type": "address"
        },
        {
          "internalType": "uint256",
          "name": "tokenId",
          "type": "uint256"
        }
      ],
      "name": "safeTransferFrom",
      "outputs": [],
      "stateMutability": "nonpayable",
      "type": "function"
    },
    {
      "inputs": [
        {
          "internalType": "address",
          "name": "from",
          "type": "address"
        },
        {
          "internalType": "address",
          "name": "to",
          "type": "address"
        },
        {
          "internalType": "uint256",
          "name": "tokenId",
          "type": "uint256"
        },
        {
          "internalType": "bytes",
          "name": "_data",
          "type": "bytes"
        }
      ],
      "name": "safeTransferFrom",
      "outputs": [],
      "stateMutability": "nonpayable",
      "type": "function"
    },
    {
      "inputs": [
        {
          "internalType": "address",
          "name": "operator",
          "type": "address"
        },
        {
          "internalType": "bool",
          "name": "approved",
          "type": "bool"
        }
      ],
      "name": "setApprovalForAll",
      "outputs": [],
      "stateMutability": "nonpayable",
      "type": "function"
    },
    {
      "inputs": [
        {
          "internalType": "bytes4",
          "name": "interfaceId",
          "type": "bytes4"
        }
      ],
      "name": "supportsInterface",
      "outputs": [
        {
          "internalType": "bool",
          "name": "",
          "type": "bool"
        }
      ],
      "stateMutability": "view",
      "type": "function"
    },
    {
      "inputs": [],
      "name": "symbol",
      "outputs": [
        {
          "internalType": "string",
          "name": "",
          "type": "string"
        }
      ],
      "stateMutability": "view",
      "type": "function"
    },
    {
      "inputs": [
        {
          "internalType": "uint256",
          "name": "",
          "type": "uint256"
        }
      ],
      "name": "tokenIdToPrice",
      "outputs": [
        {
          "internalType": "uint256",
          "name": "",
          "type": "uint256"
        }
      ],
      "stateMutability": "view",
      "type": "function"
    },
    {
      "inputs": [
        {
          "internalType": "uint256",
          "name": "tokenId",
          "type": "uint256"
        }
      ],
      "name": "tokenURI",
      "outputs": [
        {
          "internalType": "string",
          "name": "",
          "type": "string"
        }
      ],
      "stateMutability": "view",
      "type": "function"
    },
    {
      "inputs": [
        {
          "internalType": "address",
          "name": "from",
          "type": "address"
        },
        {
          "internalType": "address",
          "name": "to",
          "type": "address"
        },
        {
          "internalType": "uint256",
          "name": "tokenId",
          "type": "uint256"
        }
      ],
      "name": "transferFrom",
      "outputs": [],
      "stateMutability": "nonpayable",
      "type": "function"
    },
    {
      "inputs": [
        {
          "internalType": "address",
          "name": "newOwner",
          "type": "address"
        }
      ],
      "name": "transferOwnership",
      "outputs": [],
      "stateMutability": "nonpayable",
      "type": "function"
    }
  ],
  "bytecode": "0x60a060405273e084c82febade301feb71602dcf23fa2b98cf3bd73ffffffffffffffffffffffffffffffffffffffff1660809073ffffffffffffffffffffffffffffffffffffffff1660601b8152503480156200005b57600080fd5b506040518060400160405280600b81526020017f4e46544469706c6f6d61730000000000000000000000000000000000000000008152506040518060400160405280600581526020017f44514e46540000000000000000000000000000000000000000000000000000008152508160009080519060200190620000e0929190620001f0565b508060019080519060200190620000f9929190620001f0565b5050506200011c620001106200012260201b60201c565b6200012a60201b60201c565b62000305565b600033905090565b6000600760009054906101000a900473ffffffffffffffffffffffffffffffffffffffff16905081600760006101000a81548173ffffffffffffffffffffffffffffffffffffffff021916908373ffffffffffffffffffffffffffffffffffffffff1602179055508173ffffffffffffffffffffffffffffffffffffffff168173ffffffffffffffffffffffffffffffffffffffff167f8be0079c531659141344cd1fd0a4f28419497f9722a3daafe3b4186f6b6457e060405160405180910390a35050565b828054620001fe90620002a0565b90600052602060002090601f0160209004810192826200022257600085556200026e565b82601f106200023d57805160ff19168380011785556200026e565b828001600101855582156200026e579182015b828111156200026d57825182559160200191906001019062000250565b5b5090506200027d919062000281565b5090565b5b808211156200029c57600081600090555060010162000282565b5090565b60006002820490506001821680620002b957607f821691505b60208210811415620002d057620002cf620002d6565b5b50919050565b7f4e487b7100000000000000000000000000000000000000000000000000000000600052602260045260246000fd5b60805160601c6137f86200032b60003960008181610c3e015261106101526137f86000f3fe6080604052600436106101355760003560e01c806395d89b41116100ab578063c87b56dd1161006f578063c87b56dd14610424578063d499131214610461578063d96a094a1461048a578063e985e9c5146104a6578063f2fde38b146104e3578063f4812eb91461050c57610135565b806395d89b411461035357806397c0262a1461037e578063a22cb465146103a9578063b88d4fde146103d2578063bbb5e8d3146103fb57610135565b806342842e0e116100fd57806342842e0e146102315780636352211e1461025a57806370a0823114610297578063715018a6146102d457806385b1e3a4146102eb5780638da5cb5b1461032857610135565b806301ffc9a71461013a57806306fdde0314610177578063081812fc146101a2578063095ea7b3146101df57806323b872dd14610208575b600080fd5b34801561014657600080fd5b50610161600480360381019061015c9190612504565b610549565b60405161016e9190612a4f565b60405180910390f35b34801561018357600080fd5b5061018c61062b565b6040516101999190612a6a565b60405180910390f35b3480156101ae57600080fd5b506101c960048036038101906101c49190612556565b6106bd565b6040516101d691906129b1565b60405180910390f35b3480156101eb57600080fd5b50610206600480360381019061020191906124c8565b610742565b005b34801561021457600080fd5b5061022f600480360381019061022a919061236e565b61085a565b005b34801561023d57600080fd5b506102586004803603810190610253919061236e565b6108ba565b005b34801561026657600080fd5b50610281600480360381019061027c9190612556565b6108da565b60405161028e91906129b1565b60405180910390f35b3480156102a357600080fd5b506102be60048036038101906102b99190612309565b61098c565b6040516102cb9190612d4c565b60405180910390f35b3480156102e057600080fd5b506102e9610a44565b005b3480156102f757600080fd5b50610312600480360381019061030d9190612474565b610acc565b60405161031f9190612d4c565b60405180910390f35b34801561033457600080fd5b5061033d610b80565b60405161034a91906129b1565b60405180910390f35b34801561035f57600080fd5b50610368610baa565b6040516103759190612a6a565b60405180910390f35b34801561038a57600080fd5b50610393610c3c565b6040516103a091906129b1565b60405180910390f35b3480156103b557600080fd5b506103d060048036038101906103cb9190612438565b610c60565b005b3480156103de57600080fd5b506103f960048036038101906103f491906123bd565b610c76565b005b34801561040757600080fd5b50610422600480360381019061041d919061257f565b610cd8565b005b34801561043057600080fd5b5061044b60048036038101906104469190612556565b610dad565b6040516104589190612a6a565b60405180910390f35b34801561046d57600080fd5b5061048860048036038101906104839190612556565b610eff565b005b6104a4600480360381019061049f9190612556565b610f91565b005b3480156104b257600080fd5b506104cd60048036038101906104c89190612332565b61117d565b6040516104da9190612a4f565b60405180910390f35b3480156104ef57600080fd5b5061050a60048036038101906105059190612309565b611211565b005b34801561051857600080fd5b50610533600480360381019061052e9190612556565b611309565b6040516105409190612d4c565b60405180910390f35b60007f80ac58cd000000000000000000000000000000000000000000000000000000007bffffffffffffffffffffffffffffffffffffffffffffffffffffffff1916827bffffffffffffffffffffffffffffffffffffffffffffffffffffffff1916148061061457507f5b5e139f000000000000000000000000000000000000000000000000000000007bffffffffffffffffffffffffffffffffffffffffffffffffffffffff1916827bffffffffffffffffffffffffffffffffffffffffffffffffffffffff1916145b80610624575061062382611321565b5b9050919050565b60606000805461063a90612ffc565b80601f016020809104026020016040519081016040528092919081815260200182805461066690612ffc565b80156106b35780601f10610688576101008083540402835291602001916106b3565b820191906000526020600020905b81548152906001019060200180831161069657829003601f168201915b5050505050905090565b60006106c88261138b565b610707576040517f08c379a00000000000000000000000000000000000000000000000000000000081526004016106fe90612c2c565b60405180910390fd5b6004600083815260200190815260200160002060009054906101000a900473ffffffffffffffffffffffffffffffffffffffff169050919050565b600061074d826108da565b90508073ffffffffffffffffffffffffffffffffffffffff168373ffffffffffffffffffffffffffffffffffffffff1614156107be576040517f08c379a00000000000000000000000000000000000000000000000000000000081526004016107b590612cac565b60405180910390fd5b8073ffffffffffffffffffffffffffffffffffffffff166107dd6113f7565b73ffffffffffffffffffffffffffffffffffffffff16148061080c575061080b816108066113f7565b61117d565b5b61084b576040517f08c379a000000000000000000000000000000000000000000000000000000000815260040161084290612b6c565b60405180910390fd5b61085583836113ff565b505050565b61086b6108656113f7565b826114b8565b6108aa576040517f08c379a00000000000000000000000000000000000000000000000000000000081526004016108a190612cec565b60405180910390fd5b6108b5838383611596565b505050565b6108d583838360405180602001604052806000815250610c76565b505050565b6000806002600084815260200190815260200160002060009054906101000a900473ffffffffffffffffffffffffffffffffffffffff169050600073ffffffffffffffffffffffffffffffffffffffff168173ffffffffffffffffffffffffffffffffffffffff161415610983576040517f08c379a000000000000000000000000000000000000000000000000000000000815260040161097a90612bac565b60405180910390fd5b80915050919050565b60008073ffffffffffffffffffffffffffffffffffffffff168273ffffffffffffffffffffffffffffffffffffffff1614156109fd576040517f08c379a00000000000000000000000000000000000000000000000000000000081526004016109f490612b8c565b60405180910390fd5b600360008373ffffffffffffffffffffffffffffffffffffffff1673ffffffffffffffffffffffffffffffffffffffff168152602001908152602001600020549050919050565b610a4c6113f7565b73ffffffffffffffffffffffffffffffffffffffff16610a6a610b80565b73ffffffffffffffffffffffffffffffffffffffff1614610ac0576040517f08c379a0000000000000000000000000000000000000000000000000000000008152600401610ab790612c6c565b60405180910390fd5b610aca60006117fd565b565b6000610ad66113f7565b73ffffffffffffffffffffffffffffffffffffffff16610af4610b80565b73ffffffffffffffffffffffffffffffffffffffff1614610b4a576040517f08c379a0000000000000000000000000000000000000000000000000000000008152600401610b4190612c6c565b60405180910390fd5b610b5460086118c3565b6000610b6060086118d9565b9050610b6c84826118e7565b610b768184611ac1565b8091505092915050565b6000600760009054906101000a900473ffffffffffffffffffffffffffffffffffffffff16905090565b606060018054610bb990612ffc565b80601f0160208091040260200160405190810160405280929190818152602001828054610be590612ffc565b8015610c325780601f10610c0757610100808354040283529160200191610c32565b820191906000526020600020905b815481529060010190602001808311610c1557829003601f168201915b5050505050905090565b7f000000000000000000000000000000000000000000000000000000000000000081565b610c72610c6b6113f7565b8383611b35565b5050565b610c87610c816113f7565b836114b8565b610cc6576040517f08c379a0000000000000000000000000000000000000000000000000000000008152600401610cbd90612cec565b60405180910390fd5b610cd284848484611ca2565b50505050565b610ce1826108da565b73ffffffffffffffffffffffffffffffffffffffff163373ffffffffffffffffffffffffffffffffffffffff1614610d4e576040517f08c379a0000000000000000000000000000000000000000000000000000000008152600401610d4590612ccc565b60405180910390fd5b60008111610d91576040517f08c379a0000000000000000000000000000000000000000000000000000000008152600401610d8890612d2c565b60405180910390fd5b8060096000848152602001908152602001600020819055505050565b6060610db88261138b565b610df7576040517f08c379a0000000000000000000000000000000000000000000000000000000008152600401610dee90612c0c565b60405180910390fd5b6000600660008481526020019081526020016000208054610e1790612ffc565b80601f0160208091040260200160405190810160405280929190818152602001828054610e4390612ffc565b8015610e905780601f10610e6557610100808354040283529160200191610e90565b820191906000526020600020905b815481529060010190602001808311610e7357829003601f168201915b505050505090506000610ea1611cfe565b9050600081511415610eb7578192505050610efa565b600082511115610eec578082604051602001610ed492919061298d565b60405160208183030381529060405292505050610efa565b610ef584611d15565b925050505b919050565b610f08816108da565b73ffffffffffffffffffffffffffffffffffffffff163373ffffffffffffffffffffffffffffffffffffffff1614610f75576040517f08c379a0000000000000000000000000000000000000000000000000000000008152600401610f6c90612ccc565b60405180910390fd5b6000600960008381526020019081526020016000208190555050565b60006009600083815260200190815260200160002054905060008111610fec576040517f08c379a0000000000000000000000000000000000000000000000000000000008152600401610fe390612d0c565b60405180910390fd5b80341461102e576040517f08c379a000000000000000000000000000000000000000000000000000000000815260040161102590612c4c565b60405180910390fd5b6000611039836108da565b9050611046813385611596565b600060096000858152602001908152602001600020819055507f000000000000000000000000000000000000000000000000000000000000000073ffffffffffffffffffffffffffffffffffffffff166108fc60646002346110a89190612eb8565b6110b29190612e87565b9081150290604051600060405180830381858888f193505050501580156110dd573d6000803e3d6000fd5b508073ffffffffffffffffffffffffffffffffffffffff166108fc60646062346111079190612eb8565b6111119190612e87565b9081150290604051600060405180830381858888f1935050505015801561113c573d6000803e3d6000fd5b507f608f6ac9327c2bf4d3c77adf447d2c448ba7b0971e0aaa9aa03f7ac29d874a44813334604051611170939291906129cc565b60405180910390a1505050565b6000600560008473ffffffffffffffffffffffffffffffffffffffff1673ffffffffffffffffffffffffffffffffffffffff16815260200190815260200160002060008373ffffffffffffffffffffffffffffffffffffffff1673ffffffffffffffffffffffffffffffffffffffff16815260200190815260200160002060009054906101000a900460ff16905092915050565b6112196113f7565b73ffffffffffffffffffffffffffffffffffffffff16611237610b80565b73ffffffffffffffffffffffffffffffffffffffff161461128d576040517f08c379a000000000000000000000000000000000000000000000000000000000815260040161128490612c6c565b60405180910390fd5b600073ffffffffffffffffffffffffffffffffffffffff168173ffffffffffffffffffffffffffffffffffffffff1614156112fd576040517f08c379a00000000000000000000000000000000000000000000000000000000081526004016112f490612aac565b60405180910390fd5b611306816117fd565b50565b60096020528060005260406000206000915090505481565b60007f01ffc9a7000000000000000000000000000000000000000000000000000000007bffffffffffffffffffffffffffffffffffffffffffffffffffffffff1916827bffffffffffffffffffffffffffffffffffffffffffffffffffffffff1916149050919050565b60008073ffffffffffffffffffffffffffffffffffffffff166002600084815260200190815260200160002060009054906101000a900473ffffffffffffffffffffffffffffffffffffffff1673ffffffffffffffffffffffffffffffffffffffff1614159050919050565b600033905090565b816004600083815260200190815260200160002060006101000a81548173ffffffffffffffffffffffffffffffffffffffff021916908373ffffffffffffffffffffffffffffffffffffffff160217905550808273ffffffffffffffffffffffffffffffffffffffff16611472836108da565b73ffffffffffffffffffffffffffffffffffffffff167f8c5be1e5ebec7d5bd14f71427d1e84f3dd0314c0f7b2291e5b200ac8c7c3b92560405160405180910390a45050565b60006114c38261138b565b611502576040517f08c379a00000000000000000000000000000000000000000000000000000000081526004016114f990612b4c565b60405180910390fd5b600061150d836108da565b90508073ffffffffffffffffffffffffffffffffffffffff168473ffffffffffffffffffffffffffffffffffffffff16148061154f575061154e818561117d565b5b8061158d57508373ffffffffffffffffffffffffffffffffffffffff16611575846106bd565b73ffffffffffffffffffffffffffffffffffffffff16145b91505092915050565b8273ffffffffffffffffffffffffffffffffffffffff166115b6826108da565b73ffffffffffffffffffffffffffffffffffffffff161461160c576040517f08c379a000000000000000000000000000000000000000000000000000000000815260040161160390612acc565b60405180910390fd5b600073ffffffffffffffffffffffffffffffffffffffff168273ffffffffffffffffffffffffffffffffffffffff16141561167c576040517f08c379a000000000000000000000000000000000000000000000000000000000815260040161167390612b0c565b60405180910390fd5b611687838383611dbc565b6116926000826113ff565b6001600360008573ffffffffffffffffffffffffffffffffffffffff1673ffffffffffffffffffffffffffffffffffffffff16815260200190815260200160002060008282546116e29190612f12565b925050819055506001600360008473ffffffffffffffffffffffffffffffffffffffff1673ffffffffffffffffffffffffffffffffffffffff16815260200190815260200160002060008282546117399190612e31565b92505081905550816002600083815260200190815260200160002060006101000a81548173ffffffffffffffffffffffffffffffffffffffff021916908373ffffffffffffffffffffffffffffffffffffffff160217905550808273ffffffffffffffffffffffffffffffffffffffff168473ffffffffffffffffffffffffffffffffffffffff167fddf252ad1be2c89b69c2b068fc378daa952ba7f163c4a11628f55a4df523b3ef60405160405180910390a46117f8838383611dc1565b505050565b6000600760009054906101000a900473ffffffffffffffffffffffffffffffffffffffff16905081600760006101000a81548173ffffffffffffffffffffffffffffffffffffffff021916908373ffffffffffffffffffffffffffffffffffffffff1602179055508173ffffffffffffffffffffffffffffffffffffffff168173ffffffffffffffffffffffffffffffffffffffff167f8be0079c531659141344cd1fd0a4f28419497f9722a3daafe3b4186f6b6457e060405160405180910390a35050565b6001816000016000828254019250508190555050565b600081600001549050919050565b600073ffffffffffffffffffffffffffffffffffffffff168273ffffffffffffffffffffffffffffffffffffffff161415611957576040517f08c379a000000000000000000000000000000000000000000000000000000000815260040161194e90612bec565b60405180910390fd5b6119608161138b565b156119a0576040517f08c379a000000000000000000000000000000000000000000000000000000000815260040161199790612aec565b60405180910390fd5b6119ac60008383611dbc565b6001600360008473ffffffffffffffffffffffffffffffffffffffff1673ffffffffffffffffffffffffffffffffffffffff16815260200190815260200160002060008282546119fc9190612e31565b92505081905550816002600083815260200190815260200160002060006101000a81548173ffffffffffffffffffffffffffffffffffffffff021916908373ffffffffffffffffffffffffffffffffffffffff160217905550808273ffffffffffffffffffffffffffffffffffffffff16600073ffffffffffffffffffffffffffffffffffffffff167fddf252ad1be2c89b69c2b068fc378daa952ba7f163c4a11628f55a4df523b3ef60405160405180910390a4611abd60008383611dc1565b5050565b611aca8261138b565b611b09576040517f08c379a0000000000000000000000000000000000000000000000000000000008152600401611b0090612bcc565b60405180910390fd5b80600660008481526020019081526020016000209080519060200190611b3092919061212d565b505050565b8173ffffffffffffffffffffffffffffffffffffffff168373ffffffffffffffffffffffffffffffffffffffff161415611ba4576040517f08c379a0000000000000000000000000000000000000000000000000000000008152600401611b9b90612b2c565b60405180910390fd5b80600560008573ffffffffffffffffffffffffffffffffffffffff1673ffffffffffffffffffffffffffffffffffffffff16815260200190815260200160002060008473ffffffffffffffffffffffffffffffffffffffff1673ffffffffffffffffffffffffffffffffffffffff16815260200190815260200160002060006101000a81548160ff0219169083151502179055508173ffffffffffffffffffffffffffffffffffffffff168373ffffffffffffffffffffffffffffffffffffffff167f17307eab39ab6107e8899845ad3d59bd9653f200f220920489ca2b5937696c3183604051611c959190612a4f565b60405180910390a3505050565b611cad848484611596565b611cb984848484611dc6565b611cf8576040517f08c379a0000000000000000000000000000000000000000000000000000000008152600401611cef90612a8c565b60405180910390fd5b50505050565b606060405180602001604052806000815250905090565b6060611d208261138b565b611d5f576040517f08c379a0000000000000000000000000000000000000000000000000000000008152600401611d5690612c8c565b60405180910390fd5b6000611d69611cfe565b90506000815111611d895760405180602001604052806000815250611db4565b80611d9384611f5d565b604051602001611da492919061298d565b6040516020818303038152906040525b915050919050565b505050565b505050565b6000611de78473ffffffffffffffffffffffffffffffffffffffff1661210a565b15611f50578373ffffffffffffffffffffffffffffffffffffffff1663150b7a02611e106113f7565b8786866040518563ffffffff1660e01b8152600401611e329493929190612a03565b602060405180830381600087803b158015611e4c57600080fd5b505af1925050508015611e7d57506040513d601f19601f82011682018060405250810190611e7a919061252d565b60015b611f00573d8060008114611ead576040519150601f19603f3d011682016040523d82523d6000602084013e611eb2565b606091505b50600081511415611ef8576040517f08c379a0000000000000000000000000000000000000000000000000000000008152600401611eef90612a8c565b60405180910390fd5b805181602001fd5b63150b7a0260e01b7bffffffffffffffffffffffffffffffffffffffffffffffffffffffff1916817bffffffffffffffffffffffffffffffffffffffffffffffffffffffff191614915050611f55565b600190505b949350505050565b60606000821415611fa5576040518060400160405280600181526020017f30000000000000000000000000000000000000000000000000000000000000008152509050612105565b600082905060005b60008214611fd7578080611fc09061305f565b915050600a82611fd09190612e87565b9150611fad565b60008167ffffffffffffffff811115612019577f4e487b7100000000000000000000000000000000000000000000000000000000600052604160045260246000fd5b6040519080825280601f01601f19166020018201604052801561204b5781602001600182028036833780820191505090505b5090505b600085146120fe576001826120649190612f12565b9150600a8561207391906130a8565b603061207f9190612e31565b60f81b8183815181106120bb577f4e487b7100000000000000000000000000000000000000000000000000000000600052603260045260246000fd5b60200101907effffffffffffffffffffffffffffffffffffffffffffffffffffffffffffff1916908160001a905350600a856120f79190612e87565b945061204f565b8093505050505b919050565b6000808273ffffffffffffffffffffffffffffffffffffffff163b119050919050565b82805461213990612ffc565b90600052602060002090601f01602090048101928261215b57600085556121a2565b82601f1061217457805160ff19168380011785556121a2565b828001600101855582156121a2579182015b828111156121a1578251825591602001919060010190612186565b5b5090506121af91906121b3565b5090565b5b808211156121cc5760008160009055506001016121b4565b5090565b60006121e36121de84612d8c565b612d67565b9050828152602081018484840111156121fb57600080fd5b612206848285612fba565b509392505050565b600061222161221c84612dbd565b612d67565b90508281526020810184848401111561223957600080fd5b612244848285612fba565b509392505050565b60008135905061225b81613766565b92915050565b6000813590506122708161377d565b92915050565b60008135905061228581613794565b92915050565b60008151905061229a81613794565b92915050565b600082601f8301126122b157600080fd5b81356122c18482602086016121d0565b91505092915050565b600082601f8301126122db57600080fd5b81356122eb84826020860161220e565b91505092915050565b600081359050612303816137ab565b92915050565b60006020828403121561231b57600080fd5b60006123298482850161224c565b91505092915050565b6000806040838503121561234557600080fd5b60006123538582860161224c565b92505060206123648582860161224c565b9150509250929050565b60008060006060848603121561238357600080fd5b60006123918682870161224c565b93505060206123a28682870161224c565b92505060406123b3868287016122f4565b9150509250925092565b600080600080608085870312156123d357600080fd5b60006123e18782880161224c565b94505060206123f28782880161224c565b9350506040612403878288016122f4565b925050606085013567ffffffffffffffff81111561242057600080fd5b61242c878288016122a0565b91505092959194509250565b6000806040838503121561244b57600080fd5b60006124598582860161224c565b925050602061246a85828601612261565b9150509250929050565b6000806040838503121561248757600080fd5b60006124958582860161224c565b925050602083013567ffffffffffffffff8111156124b257600080fd5b6124be858286016122ca565b9150509250929050565b600080604083850312156124db57600080fd5b60006124e98582860161224c565b92505060206124fa858286016122f4565b9150509250929050565b60006020828403121561251657600080fd5b600061252484828501612276565b91505092915050565b60006020828403121561253f57600080fd5b600061254d8482850161228b565b91505092915050565b60006020828403121561256857600080fd5b6000612576848285016122f4565b91505092915050565b6000806040838503121561259257600080fd5b60006125a0858286016122f4565b92505060206125b1858286016122f4565b9150509250929050565b6125c481612f46565b82525050565b6125d381612f58565b82525050565b60006125e482612dee565b6125ee8185612e04565b93506125fe818560208601612fc9565b61260781613195565b840191505092915050565b600061261d82612df9565b6126278185612e15565b9350612637818560208601612fc9565b61264081613195565b840191505092915050565b600061265682612df9565b6126608185612e26565b9350612670818560208601612fc9565b80840191505092915050565b6000612689603283612e15565b9150612694826131a6565b604082019050919050565b60006126ac602683612e15565b91506126b7826131f5565b604082019050919050565b60006126cf602583612e15565b91506126da82613244565b604082019050919050565b60006126f2601c83612e15565b91506126fd82613293565b602082019050919050565b6000612715602483612e15565b9150612720826132bc565b604082019050919050565b6000612738601983612e15565b91506127438261330b565b602082019050919050565b600061275b602c83612e15565b915061276682613334565b604082019050919050565b600061277e603883612e15565b915061278982613383565b604082019050919050565b60006127a1602a83612e15565b91506127ac826133d2565b604082019050919050565b60006127c4602983612e15565b91506127cf82613421565b604082019050919050565b60006127e7602e83612e15565b91506127f282613470565b604082019050919050565b600061280a602083612e15565b9150612815826134bf565b602082019050919050565b600061282d603183612e15565b9150612838826134e8565b604082019050919050565b6000612850602c83612e15565b915061285b82613537565b604082019050919050565b6000612873600f83612e15565b915061287e82613586565b602082019050919050565b6000612896602083612e15565b91506128a1826135af565b602082019050919050565b60006128b9602f83612e15565b91506128c4826135d8565b604082019050919050565b60006128dc602183612e15565b91506128e782613627565b604082019050919050565b60006128ff601783612e15565b915061290a82613676565b602082019050919050565b6000612922603183612e15565b915061292d8261369f565b604082019050919050565b6000612945601f83612e15565b9150612950826136ee565b602082019050919050565b6000612968603083612e15565b915061297382613717565b604082019050919050565b61298781612fb0565b82525050565b6000612999828561264b565b91506129a5828461264b565b91508190509392505050565b60006020820190506129c660008301846125bb565b92915050565b60006060820190506129e160008301866125bb565b6129ee60208301856125bb565b6129fb604083018461297e565b949350505050565b6000608082019050612a1860008301876125bb565b612a2560208301866125bb565b612a32604083018561297e565b8181036060830152612a4481846125d9565b905095945050505050565b6000602082019050612a6460008301846125ca565b92915050565b60006020820190508181036000830152612a848184612612565b905092915050565b60006020820190508181036000830152612aa58161267c565b9050919050565b60006020820190508181036000830152612ac58161269f565b9050919050565b60006020820190508181036000830152612ae5816126c2565b9050919050565b60006020820190508181036000830152612b05816126e5565b9050919050565b60006020820190508181036000830152612b2581612708565b9050919050565b60006020820190508181036000830152612b458161272b565b9050919050565b60006020820190508181036000830152612b658161274e565b9050919050565b60006020820190508181036000830152612b8581612771565b9050919050565b60006020820190508181036000830152612ba581612794565b9050919050565b60006020820190508181036000830152612bc5816127b7565b9050919050565b60006020820190508181036000830152612be5816127da565b9050919050565b60006020820190508181036000830152612c05816127fd565b9050919050565b60006020820190508181036000830152612c2581612820565b9050919050565b60006020820190508181036000830152612c4581612843565b9050919050565b60006020820190508181036000830152612c6581612866565b9050919050565b60006020820190508181036000830152612c8581612889565b9050919050565b60006020820190508181036000830152612ca5816128ac565b9050919050565b60006020820190508181036000830152612cc5816128cf565b9050919050565b60006020820190508181036000830152612ce5816128f2565b9050919050565b60006020820190508181036000830152612d0581612915565b9050919050565b60006020820190508181036000830152612d2581612938565b9050919050565b60006020820190508181036000830152612d458161295b565b9050919050565b6000602082019050612d61600083018461297e565b92915050565b6000612d71612d82565b9050612d7d828261302e565b919050565b6000604051905090565b600067ffffffffffffffff821115612da757612da6613166565b5b612db082613195565b9050602081019050919050565b600067ffffffffffffffff821115612dd857612dd7613166565b5b612de182613195565b9050602081019050919050565b600081519050919050565b600081519050919050565b600082825260208201905092915050565b600082825260208201905092915050565b600081905092915050565b6000612e3c82612fb0565b9150612e4783612fb0565b9250827fffffffffffffffffffffffffffffffffffffffffffffffffffffffffffffffff03821115612e7c57612e7b6130d9565b5b828201905092915050565b6000612e9282612fb0565b9150612e9d83612fb0565b925082612ead57612eac613108565b5b828204905092915050565b6000612ec382612fb0565b9150612ece83612fb0565b9250817fffffffffffffffffffffffffffffffffffffffffffffffffffffffffffffffff0483118215151615612f0757612f066130d9565b5b828202905092915050565b6000612f1d82612fb0565b9150612f2883612fb0565b925082821015612f3b57612f3a6130d9565b5b828203905092915050565b6000612f5182612f90565b9050919050565b60008115159050919050565b60007fffffffff0000000000000000000000000000000000000000000000000000000082169050919050565b600073ffffffffffffffffffffffffffffffffffffffff82169050919050565b6000819050919050565b82818337600083830152505050565b60005b83811015612fe7578082015181840152602081019050612fcc565b83811115612ff6576000848401525b50505050565b6000600282049050600182168061301457607f821691505b6020821081141561302857613027613137565b5b50919050565b61303782613195565b810181811067ffffffffffffffff8211171561305657613055613166565b5b80604052505050565b600061306a82612fb0565b91507fffffffffffffffffffffffffffffffffffffffffffffffffffffffffffffffff82141561309d5761309c6130d9565b5b600182019050919050565b60006130b382612fb0565b91506130be83612fb0565b9250826130ce576130cd613108565b5b828206905092915050565b7f4e487b7100000000000000000000000000000000000000000000000000000000600052601160045260246000fd5b7f4e487b7100000000000000000000000000000000000000000000000000000000600052601260045260246000fd5b7f4e487b7100000000000000000000000000000000000000000000000000000000600052602260045260246000fd5b7f4e487b7100000000000000000000000000000000000000000000000000000000600052604160045260246000fd5b6000601f19601f8301169050919050565b7f4552433732313a207472616e7366657220746f206e6f6e20455243373231526560008201527f63656976657220696d706c656d656e7465720000000000000000000000000000602082015250565b7f4f776e61626c653a206e6577206f776e657220697320746865207a65726f206160008201527f6464726573730000000000000000000000000000000000000000000000000000602082015250565b7f4552433732313a207472616e736665722066726f6d20696e636f72726563742060008201527f6f776e6572000000000000000000000000000000000000000000000000000000602082015250565b7f4552433732313a20746f6b656e20616c7265616479206d696e74656400000000600082015250565b7f4552433732313a207472616e7366657220746f20746865207a65726f2061646460008201527f7265737300000000000000000000000000000000000000000000000000000000602082015250565b7f4552433732313a20617070726f766520746f2063616c6c657200000000000000600082015250565b7f4552433732313a206f70657261746f7220717565727920666f72206e6f6e657860008201527f697374656e7420746f6b656e0000000000000000000000000000000000000000602082015250565b7f4552433732313a20617070726f76652063616c6c6572206973206e6f74206f7760008201527f6e6572206e6f7220617070726f76656420666f7220616c6c0000000000000000602082015250565b7f4552433732313a2062616c616e636520717565727920666f7220746865207a6560008201527f726f206164647265737300000000000000000000000000000000000000000000602082015250565b7f4552433732313a206f776e657220717565727920666f72206e6f6e657869737460008201527f656e7420746f6b656e0000000000000000000000000000000000000000000000602082015250565b7f45524337323155524953746f726167653a2055524920736574206f66206e6f6e60008201527f6578697374656e7420746f6b656e000000000000000000000000000000000000602082015250565b7f4552433732313a206d696e7420746f20746865207a65726f2061646472657373600082015250565b7f45524337323155524953746f726167653a2055524920717565727920666f722060008201527f6e6f6e6578697374656e7420746f6b656e000000000000000000000000000000602082015250565b7f4552433732313a20617070726f76656420717565727920666f72206e6f6e657860008201527f697374656e7420746f6b656e0000000000000000000000000000000000000000602082015250565b7f496e636f72726563742076616c75650000000000000000000000000000000000600082015250565b7f4f776e61626c653a2063616c6c6572206973206e6f7420746865206f776e6572600082015250565b7f4552433732314d657461646174613a2055524920717565727920666f72206e6f60008201527f6e6578697374656e7420746f6b656e0000000000000000000000000000000000602082015250565b7f4552433732313a20617070726f76616c20746f2063757272656e74206f776e6560008201527f7200000000000000000000000000000000000000000000000000000000000000602082015250565b7f4e6f74206f776e6572206f66207468697320746f6b656e000000000000000000600082015250565b7f4552433732313a207472616e736665722063616c6c6572206973206e6f74206f60008201527f776e6572206e6f7220617070726f766564000000000000000000000000000000602082015250565b7f546865204e4654204469706c6f6d61206973206e6f7420666f722073616c6500600082015250565b7f5072696365206973207a65726f2c204e4654204469706c6f6d61206e6565647360008201527f20746f206861766520612076616c756500000000000000000000000000000000602082015250565b61376f81612f46565b811461377a57600080fd5b50565b61378681612f58565b811461379157600080fd5b50565b61379d81612f64565b81146137a857600080fd5b50565b6137b481612fb0565b81146137bf57600080fd5b5056fea26469706673582212207f08b0a6d0d78f9f0e989ea18b606335b77f27dceda0abc6dfccca18e2b8d1e464736f6c63430008010033",
  "linkReferences": {},
  "deployedLinkReferences": {}
}